{
  "_format": "hh-sol-artifact-1",
  "contractName": "TaskManager",
  "sourceName": "contracts/TaskManager.sol",
  "abi": [
    {
      "anonymous": false,
      "inputs": [
        {
          "indexed": false,
          "internalType": "uint256",
          "name": "id",
          "type": "uint256"
        },
        {
          "indexed": false,
          "internalType": "string",
          "name": "content",
          "type": "string"
        }
      ],
      "name": "TaskCreated",
      "type": "event"
    },
    {
      "anonymous": false,
      "inputs": [
        {
          "indexed": false,
          "internalType": "uint256",
          "name": "id",
          "type": "uint256"
        },
        {
          "indexed": false,
          "internalType": "bool",
          "name": "completed",
          "type": "bool"
        }
      ],
      "name": "TaskToggled",
      "type": "event"
    },
    {
      "inputs": [
        {
          "internalType": "string",
          "name": "_content",
          "type": "string"
        }
      ],
      "name": "createTask",
      "outputs": [],
      "stateMutability": "nonpayable",
      "type": "function"
    },
    {
      "inputs": [
        {
          "internalType": "uint256",
          "name": "_id",
          "type": "uint256"
        }
      ],
      "name": "getTask",
      "outputs": [
        {
          "components": [
            {
              "internalType": "uint256",
              "name": "id",
              "type": "uint256"
            },
            {
              "internalType": "string",
              "name": "content",
              "type": "string"
            },
            {
              "internalType": "bool",
              "name": "completed",
              "type": "bool"
            }
          ],
          "internalType": "struct TaskManager.Task",
          "name": "",
          "type": "tuple"
        }
      ],
      "stateMutability": "view",
      "type": "function"
    },
    {
      "inputs": [],
      "name": "taskCount",
      "outputs": [
        {
          "internalType": "uint256",
          "name": "",
          "type": "uint256"
        }
      ],
      "stateMutability": "view",
      "type": "function"
    },
    {
      "inputs": [
        {
          "internalType": "uint256",
          "name": "",
          "type": "uint256"
        }
      ],
      "name": "tasks",
      "outputs": [
        {
          "internalType": "uint256",
          "name": "id",
          "type": "uint256"
        },
        {
          "internalType": "string",
          "name": "content",
          "type": "string"
        },
        {
          "internalType": "bool",
          "name": "completed",
          "type": "bool"
        }
      ],
      "stateMutability": "view",
      "type": "function"
    },
    {
      "inputs": [
        {
          "internalType": "uint256",
          "name": "_id",
          "type": "uint256"
        }
      ],
      "name": "toggleCompleted",
      "outputs": [],
      "stateMutability": "nonpayable",
      "type": "function"
    }
  ],
  "bytecode": "0x6080604052348015600f57600080fd5b50610dc68061001f6000396000f3fe608060405234801561001057600080fd5b50600436106100575760003560e01c8063111002aa1461005c5780631d65e77e14610078578063455f5024146100a85780638d977672146100c4578063b6cb58a5146100f6575b600080fd5b6100766004803603810190610071919061063f565b610114565b005b610092600480360381019061008d91906106be565b610225565b60405161009f91906107e4565b60405180910390f35b6100c260048036038101906100bd91906106be565b610359565b005b6100de60048036038101906100d991906106be565b6103fd565b6040516100ed9392919061086e565b60405180910390f35b6100fe6104bc565b60405161010b91906108ac565b60405180910390f35b6000815111610158576040517f08c379a000000000000000000000000000000000000000000000000000000000815260040161014f90610913565b60405180910390fd5b6001600081548092919061016b90610962565b9190505550604051806060016040528060015481526020018281526020016000151581525060008060015481526020019081526020016000206000820151816000015560208201518160010190816101c39190610bb6565b5060408201518160020160006101000a81548160ff0219169083151502179055509050507fa5ed9e6226c584326505694539c95cb0e3238ae09bcda5a65c00bbfdab1c66626001548260405161021a929190610c88565b60405180910390a150565b61022d6104c2565b60008211801561023f57506001548211155b61027e576040517f08c379a000000000000000000000000000000000000000000000000000000000815260040161027590610d04565b60405180910390fd5b600080838152602001908152602001600020604051806060016040529081600082015481526020016001820180546102b5906109d9565b80601f01602080910402602001604051908101604052809291908181526020018280546102e1906109d9565b801561032e5780601f106103035761010080835404028352916020019161032e565b820191906000526020600020905b81548152906001019060200180831161031157829003601f168201915b505050505081526020016002820160009054906101000a900460ff1615151515815250509050919050565b60008111801561036b57506001548111155b6103aa576040517f08c379a00000000000000000000000000000000000000000000000000000000081526004016103a190610d70565b60405180910390fd5b60008082815260200190815260200160002060020160009054906101000a900460ff161560008083815260200190815260200160002060020160006101000a81548160ff02191690831515021790555050565b6000602052806000526040600020600091509050806000015490806001018054610426906109d9565b80601f0160208091040260200160405190810160405280929190818152602001828054610452906109d9565b801561049f5780601f106104745761010080835404028352916020019161049f565b820191906000526020600020905b81548152906001019060200180831161048257829003601f168201915b5050505050908060020160009054906101000a900460ff16905083565b60015481565b604051806060016040528060008152602001606081526020016000151581525090565b6000604051905090565b600080fd5b600080fd5b600080fd5b600080fd5b6000601f19601f8301169050919050565b7f4e487b7100000000000000000000000000000000000000000000000000000000600052604160045260246000fd5b61054c82610503565b810181811067ffffffffffffffff8211171561056b5761056a610514565b5b80604052505050565b600061057e6104e5565b905061058a8282610543565b919050565b600067ffffffffffffffff8211156105aa576105a9610514565b5b6105b382610503565b9050602081019050919050565b82818337600083830152505050565b60006105e26105dd8461058f565b610574565b9050828152602081018484840111156105fe576105fd6104fe565b5b6106098482856105c0565b509392505050565b600082601f830112610626576106256104f9565b5b81356106368482602086016105cf565b91505092915050565b600060208284031215610655576106546104ef565b5b600082013567ffffffffffffffff811115610673576106726104f4565b5b61067f84828501610611565b91505092915050565b6000819050919050565b61069b81610688565b81146106a657600080fd5b50565b6000813590506106b881610692565b92915050565b6000602082840312156106d4576106d36104ef565b5b60006106e2848285016106a9565b91505092915050565b6106f481610688565b82525050565b600081519050919050565b600082825260208201905092915050565b60005b83811015610734578082015181840152602081019050610719565b60008484015250505050565b600061074b826106fa565b6107558185610705565b9350610765818560208601610716565b61076e81610503565b840191505092915050565b60008115159050919050565b61078e81610779565b82525050565b60006060830160008301516107ac60008601826106eb565b50602083015184820360208601526107c48282610740565b91505060408301516107d96040860182610785565b508091505092915050565b600060208201905081810360008301526107fe8184610794565b905092915050565b61080f81610688565b82525050565b600082825260208201905092915050565b6000610831826106fa565b61083b8185610815565b935061084b818560208601610716565b61085481610503565b840191505092915050565b61086881610779565b82525050565b60006060820190506108836000830186610806565b81810360208301526108958185610826565b90506108a4604083018461085f565b949350505050565b60006020820190506108c16000830184610806565b92915050565b7f436f6e74656e742063616e6e6f7420626520656d707479000000000000000000600082015250565b60006108fd601783610815565b9150610908826108c7565b602082019050919050565b6000602082019050818103600083015261092c816108f0565b9050919050565b7f4e487b7100000000000000000000000000000000000000000000000000000000600052601160045260246000fd5b600061096d82610688565b91507fffffffffffffffffffffffffffffffffffffffffffffffffffffffffffffffff820361099f5761099e610933565b5b600182019050919050565b7f4e487b7100000000000000000000000000000000000000000000000000000000600052602260045260246000fd5b600060028204905060018216806109f157607f821691505b602082108103610a0457610a036109aa565b5b50919050565b60008190508160005260206000209050919050565b60006020601f8301049050919050565b600082821b905092915050565b600060088302610a6c7fffffffffffffffffffffffffffffffffffffffffffffffffffffffffffffffff82610a2f565b610a768683610a2f565b95508019841693508086168417925050509392505050565b6000819050919050565b6000610ab3610aae610aa984610688565b610a8e565b610688565b9050919050565b6000819050919050565b610acd83610a98565b610ae1610ad982610aba565b848454610a3c565b825550505050565b600090565b610af6610ae9565b610b01818484610ac4565b505050565b5b81811015610b2557610b1a600082610aee565b600181019050610b07565b5050565b601f821115610b6a57610b3b81610a0a565b610b4484610a1f565b81016020851015610b53578190505b610b67610b5f85610a1f565b830182610b06565b50505b505050565b600082821c905092915050565b6000610b8d60001984600802610b6f565b1980831691505092915050565b6000610ba68383610b7c565b9150826002028217905092915050565b610bbf826106fa565b67ffffffffffffffff811115610bd857610bd7610514565b5b610be282546109d9565b610bed828285610b29565b600060209050601f831160018114610c205760008415610c0e578287015190505b610c188582610b9a565b865550610c80565b601f198416610c2e86610a0a565b60005b82811015610c5657848901518255600182019150602085019450602081019050610c31565b86831015610c735784890151610c6f601f891682610b7c565b8355505b6001600288020188555050505b505050505050565b6000604082019050610c9d6000830185610806565b8181036020830152610caf8184610826565b90509392505050565b7f496420696e76616c696465000000000000000000000000000000000000000000600082015250565b6000610cee600b83610815565b9150610cf982610cb8565b602082019050919050565b60006020820190508181036000830152610d1d81610ce1565b9050919050565b7f494420696e76616c696465000000000000000000000000000000000000000000600082015250565b6000610d5a600b83610815565b9150610d6582610d24565b602082019050919050565b60006020820190508181036000830152610d8981610d4d565b905091905056fea26469706673582212204f57649b50561115fcf123ca5a1fd27794d43304c26d9221bbf18f07397bdf0264736f6c634300081c0033",
  "linkReferences": {},
  "deployedLinkReferences": {}
}